:1F0000000200037500AA750055759D067500AA75005575C6907500007500000200002318
:2000230012000091E58260040200001F740A440060277430240AF974083400FA90000830A8
:200043007586219000044DE493F0A3A3E582B501F6E583B502F17586007800E84400600AC7
:1E0063007901750000E4F309D8FC784CE84404600D790590000001E4F0A3D8FCD9FA4E
:04008A000200001F51
:04001F000200008E4D
:03008E0080FE22CF
:09008100E4F50AF50BF50CF50D90
:2000910075A80075C7AA75C75575923F75C7AA75C75575A227C2D9758EF975C7AA75C755B2
:2000B10075C6AF900000021200010CC093C083C082C086C0F0C0E07586009001000005860F
:2000D1009010000075F0800586E0A30586F0A3D5F0F5D0E0D0F0D086D082D083D09375A8B9
:2000F10080900004077401F09001C20075F000120001961200071275820022858284858337
:200111008575C480E584B40107E585B400028024E584B40207E585B400028034E584B4048C
:2001310007E585B400028041E584B40057E585B40452804275C48875C498AC91EC30E3FA54
:2001510075C41890000005E584F0A3E585F0803475C490AC91EC30E3FA75C41090000005C1
:20017100E584F0A3E585F0801B90000005E584F0A3E585F0800E75C4C090000005E584F01D
:20019100A3E585F022AA82AB83AC93ADF0EA4B4C4D7007C2AC5398EF8037C2ACC2CA7598AE
:2001B10050438780438E2075C90075C8348A828B838C938DF0120001E390000407E0FA8A49
:2001D10008600AC299A2999298D2AC8004C298D29922AA82AB83AC93ADF0C2CA8C00EDC4F4
:2001F1002354E0C8C423C868C854E0C868F9EBC423541F48F88A06EBC42354E0CEC423CEF5
:200211006ECE54E0CE6EFF90000000EEF0A3EFF0A3E8F0A3E9F09019400075F001120000DA
:2002310000AE82AF83A893A9F0C3E49EFAE49FFBE498FCE499FD8A068ECA8ECC8B027B007E
:200251008ACB8ACDC2CFD2CA22C0E0C0F0C082C083C093C086758600C084C085C095C09CEF
:20027100C002C003C004C005C0D075D000209804020003059000044DE0FAA3E0FBE03395E3
:20029100E0FCFDEA2407F584EB3400F585EC3400F595E5990586F07586009000044DE024CA
:2002B10001FAA3E03400FB9000044DEAF074035BA3F09000044F7586019000044DE07586C5
:2002D10000F5F0E0B5F011758601A3E0758600F5F0A3E0B5F002800280189000044FE02408
:2002F10001FAA3E03400FB9000044FEAF074035BA3F0C298109902800690000451E4F0D00A
:20031100D0D005D004D003D002D09CD095D085D084D086D093D083D082D0F0D0E032E50847
:20033100604F9000044F7586019000044DE0758600F5F0E0B5F011758601A3E0758600F578
:20035100F0A3E0B5F00280309000044FE0FAA3E0FBE03395E0FCFDEA2407F584EB3400F564
:2003710085EC3400F5950586E0FA7586008A82800A3098048599822275820022AA82E50887
:20039100601290000451E070F9900004517401F08A9980073099FD8A99C29922E50860699C
:2003B1009000044F7586019000044DE0758600F5F0E0B5F011758601A3E0758600F5F0A314
:2003D100E0B5F00280DA9000044FE0FAA3E0FBE03395E0FCFDEA2407F584EB3400F585EC5C
:2003F1003400F5950586E0FA758600C2AC9000044FE02401FBA3E03400FC9000044FEBF00C
:2004110074035CA3F0D2AC80073098FDAA99C2988A822253B0FD9000000275F000120007C0
:20043100B943B00222C2AC9000044FE4F0A3F09000044DE4F0A3F0C298E5086006C299D201
:20045100AC8002D29922AA82AB83AC93ADF0EA4B4C4D7007C2AE53C0EF803BC2AEC28E75F3
:20047100C05043D880438E10AE8953060F74204EF5898A828B838C938DF0120004A89000DC
:200491000448E0FA8A09600AC2C1A2C192C0D2AE8004C2C0D2C122AA82AB83AC93ADF0C2BD
:2004B1008E8C00EDC42354E0C8C423C868C854E0C868F9EBC423541F48F88A06EBC42354CA
:2004D100E0CEC423CE6ECE54E0CE6EFF90000000EEF0A3EFF0A3E8F0A3E9F09019400075B8
:2004F100F00112000000AE82AF83A893A9F0C3E49EFAE49FFBE498FCE499FD8A8D8A8BC215
:200511008FD28E22C0E0C0F0C082C083C093C086758600C084C085C095C09CC002C003C0D1
:2005310004C005C0D075D00020C004020005C090000452E0FAA3E0FBE03395E0FCFDEA2494
:2005510008F584EB3404F585EC3400F595E5C10586F075860090000452E02401FAA3E0340A
:2005710000FB90000452743F5AF0A3E4F09000045475860190000452E0758600F5F0E0B5F6
:20059100F011758601A3E0758600F5F0A3E0B5F0028002801890000454E02401FAA3E03408
:2005B10000FB90000454743F5AF0A3E4F0C2C010C102800690000456E4F0D0D0D005D004F1
:2005D100D003D002D09CD095D085D084D086D093D083D082D0F0D0E032E509604F900004BA
:2005F1005475860190000452E0758600F5F0E0B5F011758601A3E0758600F5F0A3E0B5F0D7
:2006110002803090000454E0FAA3E0FBE03395E0FCFDEA2408F584EB3404F585EC3400F515
:20063100950586E0FA7586008A82800A30C00485C1822275820022AA82E509601290000407
:2006510056E070F9900004567401F08AC1800730C1FD8AC1C2C122E50960699000045475D7
:20067100860190000452E0758600F5F0E0B5F011758601A3E0758600F5F0A3E0B5F002809D
:20069100DA90000454E0FAA3E0FBE03395E0FCFDEA2408F584EB3404F585EC3400F59505D3
:2006B10086E0FA758600C2AE90000454E02401FBA3E03400FC90000454743F5BF0A3E4F066
:2006D100D2AE800730C0FDAAC1C2C08A822253A1F79000000275F000120007B943A1082238
:2006F100C2AE90000454E4F0A3F090000452E4F0A3F0C2C0E5096006C2C1D2AE8002D2C1EF
:200711002290000005E0B40107A3E0B40002802A90000005E0B40207A3E0B40002801B90FC
:20073100000005E0B40407A3E0B400028002800A7A007B127C007D0080087A007B247C00A2
:200751007D00EAF4FAEBF4FBECF4FCEDF4FD8A0E8B0FC2A95388CCAA895302F074014AF52F
:2007710089438E08850E8AAA0F7B008A8CD2A9D28C22C0E0C0D0850E8A850F8CE4050AB58F
:200791000A0C050BB50B07050CB50C02050DD0D0D0E032C2A9AA0AAB0BAC0CAD0DD2A98AA7
:2007B100828B838C938DF022AA82AB83AC93ADF0C002C003C004C005120007A4AE82AF8377
:2007D100A893A9F0D005D004D003D00290000449EA2EF0EB3FA3F0EC38A3F0ED39A3F012C2
:2007F1000007A4AE82AF83A893A9F090000449E0FAA3E0FBA3E0FCA3E0FDC3EE9AEF9BE816
:200811009CE99D40DA22A882A983E849601009B800011900000000000000D8F7D9F52200D8
:09083100000000000000000000BE
:00000001FF
